{
  "_format": "hh-sol-artifact-1",
  "contractName": "BakeryExecutable",
  "sourceName": "contracts/Bakery.sol",
  "abi": [
    {
      "inputs": [
        {
          "internalType": "address",
          "name": "gateway_",
          "type": "address"
        },
        {
          "internalType": "address",
          "name": "gasReceiver_",
          "type": "address"
        },
        {
          "internalType": "string",
          "name": "thisChain_",
          "type": "string"
        }
      ],
      "stateMutability": "nonpayable",
      "type": "constructor"
    },
    {
      "inputs": [],
      "name": "InvalidAddress",
      "type": "error"
    },
    {
      "inputs": [],
      "name": "NotApprovedByGateway",
      "type": "error"
    },
    {
      "inputs": [],
      "name": "NotEnoughValueForGas",
      "type": "error"
    },
    {
      "anonymous": false,
      "inputs": [
        {
          "indexed": true,
          "internalType": "address",
          "name": "owner",
          "type": "address"
        },
        {
          "indexed": true,
          "internalType": "address",
          "name": "approved",
          "type": "address"
        },
        {
          "indexed": true,
          "internalType": "uint256",
          "name": "tokenId",
          "type": "uint256"
        }
      ],
      "name": "Approval",
      "type": "event"
    },
    {
      "anonymous": false,
      "inputs": [
        {
          "indexed": true,
          "internalType": "address",
          "name": "owner",
          "type": "address"
        },
        {
          "indexed": true,
          "internalType": "address",
          "name": "operator",
          "type": "address"
        },
        {
          "indexed": false,
          "internalType": "bool",
          "name": "approved",
          "type": "bool"
        }
      ],
      "name": "ApprovalForAll",
      "type": "event"
    },
    {
      "anonymous": false,
      "inputs": [
        {
          "indexed": false,
          "internalType": "uint256",
          "name": "tokenId",
          "type": "uint256"
        },
        {
          "indexed": false,
          "internalType": "string",
          "name": "chain",
          "type": "string"
        },
        {
          "indexed": true,
          "internalType": "address",
          "name": "sponsor",
          "type": "address"
        },
        {
          "indexed": true,
          "internalType": "address",
          "name": "recipient",
          "type": "address"
        }
      ],
      "name": "Done",
      "type": "event"
    },
    {
      "anonymous": false,
      "inputs": [
        {
          "indexed": false,
          "internalType": "uint256",
          "name": "timestamp",
          "type": "uint256"
        },
        {
          "indexed": true,
          "internalType": "address",
          "name": "user",
          "type": "address"
        }
      ],
      "name": "DoneBio",
      "type": "event"
    },
    {
      "anonymous": false,
      "inputs": [
        {
          "indexed": false,
          "internalType": "uint256",
          "name": "tokenId",
          "type": "uint256"
        },
        {
          "indexed": false,
          "internalType": "string",
          "name": "chain",
          "type": "string"
        },
        {
          "indexed": true,
          "internalType": "address",
          "name": "sponsor",
          "type": "address"
        },
        {
          "indexed": true,
          "internalType": "address",
          "name": "recipient",
          "type": "address"
        }
      ],
      "name": "Invoice",
      "type": "event"
    },
    {
      "anonymous": false,
      "inputs": [
        {
          "indexed": false,
          "internalType": "uint256",
          "name": "tokenId",
          "type": "uint256"
        },
        {
          "indexed": false,
          "internalType": "string",
          "name": "chain",
          "type": "string"
        },
        {
          "indexed": true,
          "internalType": "address",
          "name": "sponsor",
          "type": "address"
        },
        {
          "indexed": true,
          "internalType": "address",
          "name": "recipient",
          "type": "address"
        },
        {
          "indexed": false,
          "internalType": "string",
          "name": "tokenSymbol",
          "type": "string"
        },
        {
          "indexed": false,
          "internalType": "uint256",
          "name": "amount",
          "type": "uint256"
        },
        {
          "indexed": false,
          "internalType": "string",
          "name": "message",
          "type": "string"
        }
      ],
      "name": "Pending",
      "type": "event"
    },
    {
      "anonymous": false,
      "inputs": [
        {
          "indexed": false,
          "internalType": "uint256",
          "name": "timestamp",
          "type": "uint256"
        },
        {
          "indexed": true,
          "internalType": "address",
          "name": "user",
          "type": "address"
        }
      ],
      "name": "PendingBio",
      "type": "event"
    },
    {
      "anonymous": false,
      "inputs": [
        {
          "indexed": true,
          "internalType": "address",
          "name": "from",
          "type": "address"
        },
        {
          "indexed": true,
          "internalType": "address",
          "name": "to",
          "type": "address"
        },
        {
          "indexed": true,
          "internalType": "uint256",
          "name": "tokenId",
          "type": "uint256"
        }
      ],
      "name": "Transfer",
      "type": "event"
    },
    {
      "inputs": [
        {
          "internalType": "address",
          "name": "to",
          "type": "address"
        },
        {
          "internalType": "uint256",
          "name": "tokenId",
          "type": "uint256"
        }
      ],
      "name": "approve",
      "outputs": [],
      "stateMutability": "nonpayable",
      "type": "function"
    },
    {
      "inputs": [
        {
          "internalType": "address",
          "name": "owner",
          "type": "address"
        }
      ],
      "name": "balanceOf",
      "outputs": [
        {
          "internalType": "uint256",
          "name": "",
          "type": "uint256"
        }
      ],
      "stateMutability": "view",
      "type": "function"
    },
    {
      "inputs": [
        {
          "internalType": "address",
          "name": "",
          "type": "address"
        }
      ],
      "name": "bios",
      "outputs": [
        {
          "internalType": "string",
          "name": "",
          "type": "string"
        }
      ],
      "stateMutability": "view",
      "type": "function"
    },
    {
      "inputs": [],
      "name": "contractId",
      "outputs": [
        {
          "internalType": "bytes32",
          "name": "",
          "type": "bytes32"
        }
      ],
      "stateMutability": "pure",
      "type": "function"
    },
    {
      "inputs": [
        {
          "internalType": "uint256",
          "name": "",
          "type": "uint256"
        }
      ],
      "name": "dataNFT",
      "outputs": [
        {
          "internalType": "string",
          "name": "",
          "type": "string"
        }
      ],
      "stateMutability": "view",
      "type": "function"
    },
    {
      "inputs": [
        {
          "internalType": "bytes32",
          "name": "commandId",
          "type": "bytes32"
        },
        {
          "internalType": "string",
          "name": "sourceChain",
          "type": "string"
        },
        {
          "internalType": "string",
          "name": "sourceAddress",
          "type": "string"
        },
        {
          "internalType": "bytes",
          "name": "payload",
          "type": "bytes"
        }
      ],
      "name": "execute",
      "outputs": [],
      "stateMutability": "nonpayable",
      "type": "function"
    },
    {
      "inputs": [
        {
          "internalType": "bytes32",
          "name": "commandId",
          "type": "bytes32"
        },
        {
          "internalType": "string",
          "name": "sourceChain",
          "type": "string"
        },
        {
          "internalType": "string",
          "name": "sourceAddress",
          "type": "string"
        },
        {
          "internalType": "bytes",
          "name": "payload",
          "type": "bytes"
        },
        {
          "internalType": "string",
          "name": "tokenSymbol",
          "type": "string"
        },
        {
          "internalType": "uint256",
          "name": "amount",
          "type": "uint256"
        }
      ],
      "name": "executeWithToken",
      "outputs": [],
      "stateMutability": "nonpayable",
      "type": "function"
    },
    {
      "inputs": [],
      "name": "gasReceiver",
      "outputs": [
        {
          "internalType": "contract IAxelarGasService",
          "name": "",
          "type": "address"
        }
      ],
      "stateMutability": "view",
      "type": "function"
    },
    {
      "inputs": [],
      "name": "gateway",
      "outputs": [
        {
          "internalType": "contract IAxelarGateway",
          "name": "",
          "type": "address"
        }
      ],
      "stateMutability": "view",
      "type": "function"
    },
    {
      "inputs": [
        {
          "internalType": "uint256",
          "name": "tokenId",
          "type": "uint256"
        }
      ],
      "name": "getApproved",
      "outputs": [
        {
          "internalType": "address",
          "name": "",
          "type": "address"
        }
      ],
      "stateMutability": "view",
      "type": "function"
    },
    {
      "inputs": [
        {
          "internalType": "address",
          "name": "owner",
          "type": "address"
        },
        {
          "internalType": "address",
          "name": "operator",
          "type": "address"
        }
      ],
      "name": "isApprovedForAll",
      "outputs": [
        {
          "internalType": "bool",
          "name": "",
          "type": "bool"
        }
      ],
      "stateMutability": "view",
      "type": "function"
    },
    {
      "inputs": [],
      "name": "name",
      "outputs": [
        {
          "internalType": "string",
          "name": "",
          "type": "string"
        }
      ],
      "stateMutability": "view",
      "type": "function"
    },
    {
      "inputs": [
        {
          "internalType": "uint256",
          "name": "tokenId",
          "type": "uint256"
        }
      ],
      "name": "ownerOf",
      "outputs": [
        {
          "internalType": "address",
          "name": "",
          "type": "address"
        }
      ],
      "stateMutability": "view",
      "type": "function"
    },
    {
      "inputs": [
        {
          "internalType": "uint256",
          "name": "",
          "type": "uint256"
        }
      ],
      "name": "receipt",
      "outputs": [
        {
          "internalType": "bytes",
          "name": "data",
          "type": "bytes"
        },
        {
          "internalType": "bool",
          "name": "active",
          "type": "bool"
        },
        {
          "internalType": "bool",
          "name": "valid",
          "type": "bool"
        }
      ],
      "stateMutability": "view",
      "type": "function"
    },
    {
      "inputs": [
        {
          "internalType": "address",
          "name": "from",
          "type": "address"
        },
        {
          "internalType": "address",
          "name": "to",
          "type": "address"
        },
        {
          "internalType": "uint256",
          "name": "tokenId",
          "type": "uint256"
        }
      ],
      "name": "safeTransferFrom",
      "outputs": [],
      "stateMutability": "nonpayable",
      "type": "function"
    },
    {
      "inputs": [
        {
          "internalType": "address",
          "name": "from",
          "type": "address"
        },
        {
          "internalType": "address",
          "name": "to",
          "type": "address"
        },
        {
          "internalType": "uint256",
          "name": "tokenId",
          "type": "uint256"
        },
        {
          "internalType": "bytes",
          "name": "data",
          "type": "bytes"
        }
      ],
      "name": "safeTransferFrom",
      "outputs": [],
      "stateMutability": "nonpayable",
      "type": "function"
    },
    {
      "inputs": [
        {
          "internalType": "string",
          "name": "destinationChain",
          "type": "string"
        },
        {
          "internalType": "string",
          "name": "destinationContract",
          "type": "string"
        },
        {
          "internalType": "address",
          "name": "destinationAddress",
          "type": "address"
        },
        {
          "internalType": "string",
          "name": "symbol",
          "type": "string"
        },
        {
          "internalType": "uint256",
          "name": "amount",
          "type": "uint256"
        },
        {
          "internalType": "string",
          "name": "message",
          "type": "string"
        },
        {
          "internalType": "uint256",
          "name": "gasForRemote",
          "type": "uint256"
        }
      ],
      "name": "send",
      "outputs": [],
      "stateMutability": "payable",
      "type": "function"
    },
    {
      "inputs": [
        {
          "internalType": "address",
          "name": "operator",
          "type": "address"
        },
        {
          "internalType": "bool",
          "name": "approved",
          "type": "bool"
        }
      ],
      "name": "setApprovalForAll",
      "outputs": [],
      "stateMutability": "nonpayable",
      "type": "function"
    },
    {
      "inputs": [
        {
          "internalType": "string",
          "name": "destinationChain",
          "type": "string"
        },
        {
          "internalType": "string",
          "name": "destinationContract",
          "type": "string"
        },
        {
          "internalType": "address",
          "name": "destinationAddress",
          "type": "address"
        },
        {
          "internalType": "string",
          "name": "message",
          "type": "string"
        }
      ],
      "name": "setBio",
      "outputs": [],
      "stateMutability": "payable",
      "type": "function"
    },
    {
      "inputs": [
        {
          "internalType": "bytes4",
          "name": "interfaceId",
          "type": "bytes4"
        }
      ],
      "name": "supportsInterface",
      "outputs": [
        {
          "internalType": "bool",
          "name": "",
          "type": "bool"
        }
      ],
      "stateMutability": "view",
      "type": "function"
    },
    {
      "inputs": [],
      "name": "symbol",
      "outputs": [
        {
          "internalType": "string",
          "name": "",
          "type": "string"
        }
      ],
      "stateMutability": "view",
      "type": "function"
    },
    {
      "inputs": [],
      "name": "thisChain",
      "outputs": [
        {
          "internalType": "string",
          "name": "",
          "type": "string"
        }
      ],
      "stateMutability": "view",
      "type": "function"
    },
    {
      "inputs": [
        {
          "internalType": "uint256",
          "name": "tokenId",
          "type": "uint256"
        }
      ],
      "name": "tokenURI",
      "outputs": [
        {
          "internalType": "string",
          "name": "",
          "type": "string"
        }
      ],
      "stateMutability": "view",
      "type": "function"
    },
    {
      "inputs": [
        {
          "internalType": "address",
          "name": "from",
          "type": "address"
        },
        {
          "internalType": "address",
          "name": "to",
          "type": "address"
        },
        {
          "internalType": "uint256",
          "name": "tokenId",
          "type": "uint256"
        }
      ],
      "name": "transferFrom",
      "outputs": [],
      "stateMutability": "nonpayable",
      "type": "function"
    }
  ],
  "bytecode": "0x60c06040526008805461ffff19166101001790553480156200002057600080fd5b50604051620047e5380380620047e5833981016040819052620000439162000570565b604080518082018252601281527110dbdbdada5948135bdb9cdd195c8813919560721b602080830191825283518085019094526003845262514b5960e81b90840152815186939162000099916000919062000497565b508051620000af90600190602084019062000497565b5050506001600160a01b038116620000da5760405163e6c4247b60e01b815260040160405180910390fd5b6001600160a01b03908116608090815290831660a0526040805191820190526058808252620046856020830139620f4240600052600c6020908152815162000146927ff75fa7e281ce4e7c2265cb95791c4635afa58b543b88b5b95522884f3826554a92019062000497565b506040518060800160405280605881526020016200452460589139625b8d80600052600c60209081528151620001a0927f106f2b503da3f01c295773af56552ad4a3dad8b5787cceb93e8ecccf9cb4a6da92019062000497565b506040518060800160405280605881526020016200478d6058913962b71b00600052600c60209081528151620001fa927fd4a1aa9efcef3f307be9a4455ca2f0b88c0f75eb9bf9fe57d1b61b745088a20692019062000497565b50604051806080016040528060588152602001620044746058913963016e3600600052600c6020908152815162000255927f6da11cbd6b3596ed809952f0aa937c01521b0657218d35827f0f18c4e05edd7b92019062000497565b506040518060800160405280605881526020016200457c605891396302dc6c00600052600c60209081528151620002b0927fbf7ee84733db1ff9e03edbef0a4900d43a1833e9ce1eebdcfad946af325b718392019062000497565b5060405180608001604052806058815260200162004735605891396305b8d800600052600c602090815281516200030b927ffd524ddc9f1d987f57f99ba0b39082a9d8b56e733ec4cea53261f0aaa210bc6a92019062000497565b50604051806080016040528060588152602001620044cc60589139630b71b000600052600c6020908152815162000366927f5e164ecce071da93dc4700239be0ca449d3c8620b2b187a0d255244c50fac29c92019062000497565b50604051806080016040528060588152602001620046dd605891396316e36000600052600c60209081528151620003c1927feda9b2c601e6af535ba6657b0adf34fd5beaaf1661dc26c3ed7a1de01723050c92019062000497565b50604051806080016040528060588152602001620045d460589139632dc6c000600052600c602090815281516200041c927fa2f6c47cea69240cf3ac6d7ded79705d9f6344f826891ddbee2e20b7329f0af892019062000497565b506040518060800160405280605981526020016200462c60599139635b8d8000600052600c6020908152815162000477927fb4e89aab3c144b92ef07d2ad5c83a64453466e327091b5c7f25df36a6617029b92019062000497565b5080516200048d90600990602084019062000497565b50505050620006b1565b828054620004a59062000674565b90600052602060002090601f016020900481019282620004c9576000855562000514565b82601f10620004e457805160ff191683800117855562000514565b8280016001018555821562000514579182015b8281111562000514578251825591602001919060010190620004f7565b506200052292915062000526565b5090565b5b8082111562000522576000815560010162000527565b80516001600160a01b03811681146200055557600080fd5b919050565b634e487b7160e01b600052604160045260246000fd5b6000806000606084860312156200058657600080fd5b62000591846200053d565b92506020620005a28186016200053d565b60408601519093506001600160401b0380821115620005c057600080fd5b818701915087601f830112620005d557600080fd5b815181811115620005ea57620005ea6200055a565b604051601f8201601f19908116603f011681019083821181831017156200061557620006156200055a565b816040528281528a868487010111156200062e57600080fd5b600093505b8284101562000652578484018601518185018701529285019262000633565b82841115620006645760008684830101525b8096505050505050509250925092565b600181811c908216806200068957607f821691505b60208210811415620006ab57634e487b7160e01b600052602260045260246000fd5b50919050565b60805160a051613d50620007246000396000818161039d015281816106aa0152818161136f015261140a01526000818161026601528181610750015281816109b401528181610bfc0152818161105e015281816111b6015281816115320152818161171901526118570152613d506000f3fe60806040526004361061018b5760003560e01c80636352211e116100d6578063a2aa43371161007f578063e63587d611610059578063e63587d614610496578063e985e9c5146104a9578063fb253b32146104f257600080fd5b8063a2aa433714610427578063b88d4fde14610456578063c87b56dd1461047657600080fd5b80638291286c116100b05780638291286c146103bf57806395d89b41146103f2578063a22cb4651461040757600080fd5b80636352211e1461033d57806370a082311461035d57806380d14b4a1461038b57600080fd5b80631a98b2e01161013857806342ac7b641161011257806342ac7b64146102e857806349160658146103085780634d427cf91461032857600080fd5b80631a98b2e01461028857806323b872dd146102a857806342842e0e146102c857600080fd5b8063081812fc11610169578063081812fc146101fc578063095ea7b314610234578063116191b61461025457600080fd5b806301ffc9a71461019057806306fdde03146101c557806307c5158b146101e7575b600080fd5b34801561019c57600080fd5b506101b06101ab366004612e76565b610512565b60405190151581526020015b60405180910390f35b3480156101d157600080fd5b506101da6105af565b6040516101bc9190612eeb565b6101fa6101f5366004613039565b610641565b005b34801561020857600080fd5b5061021c6102173660046130e0565b61080c565b6040516001600160a01b0390911681526020016101bc565b34801561024057600080fd5b506101fa61024f3660046130f9565b610833565b34801561026057600080fd5b5061021c7f000000000000000000000000000000000000000000000000000000000000000081565b34801561029457600080fd5b506101fa6102a3366004613125565b61096a565b3480156102b457600080fd5b506101fa6102c33660046131ff565b610a86565b3480156102d457600080fd5b506101fa6102e33660046131ff565b610afd565b3480156102f457600080fd5b506101da610303366004613240565b610b18565b34801561031457600080fd5b506101fa61032336600461325d565b610bb2565b34801561033457600080fd5b506101da610cc2565b34801561034957600080fd5b5061021c6103583660046130e0565b610ccf565b34801561036957600080fd5b5061037d610378366004613240565b610d34565b6040519081526020016101bc565b34801561039757600080fd5b5061021c7f000000000000000000000000000000000000000000000000000000000000000081565b3480156103cb57600080fd5b507f4b6eb31c8a377f0bbbffefc8d925b1071ec035203d83f385b18d3e6f765f68e461037d565b3480156103fe57600080fd5b506101da610dce565b34801561041357600080fd5b506101fa61042236600461330f565b610ddd565b34801561043357600080fd5b506104476104423660046130e0565b610dec565b6040516101bc93929190613348565b34801561046257600080fd5b506101fa610471366004613372565b610e9c565b34801561048257600080fd5b506101da6104913660046130e0565b610f1a565b6101fa6104a43660046133f2565b61102b565b3480156104b557600080fd5b506101b06104c43660046134c3565b6001600160a01b03918216600090815260056020908152604080832093909416825291909152205460ff1690565b3480156104fe57600080fd5b506101da61050d3660046130e0565b611601565b60006001600160e01b031982167f80ac58cd00000000000000000000000000000000000000000000000000000000148061057557506001600160e01b031982167f5b5e139f00000000000000000000000000000000000000000000000000000000145b806105a957507f01ffc9a7000000000000000000000000000000000000000000000000000000006001600160e01b03198316145b92915050565b6060600080546105be906134f1565b80601f01602080910402602001604051908101604052809291908181526020018280546105ea906134f1565b80156106375780601f1061060c57610100808354040283529160200191610637565b820191906000526020600020905b81548152906001019060200180831161061a57829003601f168201915b5050505050905090565b60085460405142916000916106629160ff169086908590879060200161352c565b60408051601f1981840301815291905290503415610720576040517f0c93e3bb0000000000000000000000000000000000000000000000000000000081526001600160a01b037f00000000000000000000000000000000000000000000000000000000000000001690630c93e3bb9034906106ed9030908d908d908d908d908a903390600401613590565b6000604051808303818588803b15801561070657600080fd5b505af115801561071a573d6000803e3d6000fd5b50505050505b6040517f1c92115f0000000000000000000000000000000000000000000000000000000081526001600160a01b037f00000000000000000000000000000000000000000000000000000000000000001690631c92115f9061078d908b908b908b908b9088906004016135f3565b600060405180830381600087803b1580156107a757600080fd5b505af11580156107bb573d6000803e3d6000fd5b50505050836001600160a01b03167f49726da66a6cbbe3e9f3163416dde223ee4e3a6d43d25b95442dc46a6886338b836040516107fa91815260200190565b60405180910390a25050505050505050565b60006108178261161a565b506000908152600460205260409020546001600160a01b031690565b600061083e82610ccf565b9050806001600160a01b0316836001600160a01b031614156108cd5760405162461bcd60e51b815260206004820152602160248201527f4552433732313a20617070726f76616c20746f2063757272656e74206f776e6560448201527f720000000000000000000000000000000000000000000000000000000000000060648201526084015b60405180910390fd5b336001600160a01b03821614806108e957506108e981336104c4565b61095b5760405162461bcd60e51b815260206004820152603d60248201527f4552433732313a20617070726f76652063616c6c6572206973206e6f7420746f60448201527f6b656e206f776e6572206f7220617070726f76656420666f7220616c6c00000060648201526084016108c4565b6109658383611681565b505050565b6000858560405161097c92919061363a565b6040519081900381207f1876eed900000000000000000000000000000000000000000000000000000000825291506001600160a01b037f00000000000000000000000000000000000000000000000000000000000000001690631876eed9906109f9908e908e908e908e908e9089908d908d908d9060040161364a565b602060405180830381600087803b158015610a1357600080fd5b505af1158015610a27573d6000803e3d6000fd5b505050506040513d601f19601f82011682018060405250810190610a4b91906136a9565b610a6857604051631403112d60e21b815260040160405180910390fd5b610a798a8a8a8a8a8a8a8a8a6116fc565b5050505050505050505050565b610a9033826119d1565b610af25760405162461bcd60e51b815260206004820152602d60248201527f4552433732313a2063616c6c6572206973206e6f7420746f6b656e206f776e6560448201526c1c881bdc88185c1c1c9bdd9959609a1b60648201526084016108c4565b610965838383611a4f565b61096583838360405180602001604052806000815250610e9c565b600b6020526000908152604090208054610b31906134f1565b80601f0160208091040260200160405190810160405280929190818152602001828054610b5d906134f1565b8015610baa5780601f10610b7f57610100808354040283529160200191610baa565b820191906000526020600020905b815481529060010190602001808311610b8d57829003601f168201915b505050505081565b60008282604051610bc492919061363a565b6040519081900381207f5f6970c300000000000000000000000000000000000000000000000000000000825291506001600160a01b037f00000000000000000000000000000000000000000000000000000000000000001690635f6970c390610c3b908b908b908b908b908b9089906004016136c6565b602060405180830381600087803b158015610c5557600080fd5b505af1158015610c69573d6000803e3d6000fd5b505050506040513d601f19601f82011682018060405250810190610c8d91906136a9565b610caa57604051631403112d60e21b815260040160405180910390fd5b610cb8878787878787611c62565b5050505050505050565b60098054610b31906134f1565b6000818152600260205260408120546001600160a01b0316806105a95760405162461bcd60e51b815260206004820152601860248201527f4552433732313a20696e76616c696420746f6b656e204944000000000000000060448201526064016108c4565b60006001600160a01b038216610db25760405162461bcd60e51b815260206004820152602960248201527f4552433732313a2061646472657373207a65726f206973206e6f74206120766160448201527f6c6964206f776e6572000000000000000000000000000000000000000000000060648201526084016108c4565b506001600160a01b031660009081526003602052604090205490565b6060600180546105be906134f1565b610de83383836121e4565b5050565b600a60205260009081526040902080548190610e07906134f1565b80601f0160208091040260200160405190810160405280929190818152602001828054610e33906134f1565b8015610e805780601f10610e5557610100808354040283529160200191610e80565b820191906000526020600020905b815481529060010190602001808311610e6357829003601f168201915b5050506001909301549192505060ff8082169161010090041683565b610ea633836119d1565b610f085760405162461bcd60e51b815260206004820152602d60248201527f4552433732313a2063616c6c6572206973206e6f7420746f6b656e206f776e6560448201526c1c881bdc88185c1c1c9bdd9959609a1b60648201526084016108c4565b610f14848484846122b3565b50505050565b6060610f258261161a565b60008281526006602052604081208054610f3e906134f1565b80601f0160208091040260200160405190810160405280929190818152602001828054610f6a906134f1565b8015610fb75780601f10610f8c57610100808354040283529160200191610fb7565b820191906000526020600020905b815481529060010190602001808311610f9a57829003601f168201915b505050505090506000610fd560408051602081019091526000815290565b9050805160001415610fe8575092915050565b81511561101a578082604051602001611002929190613707565b60405160208183030381529060405292505050919050565b61102384612331565b949350505050565b6040517f935b13f60000000000000000000000000000000000000000000000000000000081526000906001600160a01b037f0000000000000000000000000000000000000000000000000000000000000000169063935b13f690611093908890600401612eeb565b60206040518083038186803b1580156110ab57600080fd5b505afa1580156110bf573d6000803e3d6000fd5b505050506040513d601f19601f820116820180604052508101906110e39190613736565b6040517f23b872dd000000000000000000000000000000000000000000000000000000008152336004820152306024820152604481018690529091506001600160a01b038216906323b872dd90606401602060405180830381600087803b15801561114d57600080fd5b505af1158015611161573d6000803e3d6000fd5b505050506040513d601f19601f8201168201806040525081019061118591906136a9565b506040517f095ea7b30000000000000000000000000000000000000000000000000000000081526001600160a01b037f0000000000000000000000000000000000000000000000000000000000000000811660048301526024820186905282169063095ea7b390604401602060405180830381600087803b15801561120957600080fd5b505af115801561121d573d6000803e3d6000fd5b505050506040513d601f19601f8201168201806040525081019061124191906136a9565b50611250600780546001019055565b60006009338a89428a8a61126360075490565b60405160200161127a9897969594939291906137f3565b60408051601f1981840301815282825280516020808301919091206060850184528285526001858301526000858501819052818152600a8352939093208451805193965093949390926112d09284920190612dc7565b506020828101516001909201805460409485015115156101000261ff00199415159490941661ffff199091161792909217909155905160009161131b9184918c9133918b9101613866565b60408051601f1981840301815291905290508415611502573485111561136d576040517fe5f5a79900000000000000000000000000000000000000000000000000000000815260040160405180910390fd5b7f00000000000000000000000000000000000000000000000000000000000000006001600160a01b031663c62c200286308e8e868e8e336040518963ffffffff1660e01b81526004016113c69796959493929190613898565b6000604051808303818588803b1580156113df57600080fd5b505af11580156113f3573d6000803e3d6000fd5b505050505084341115611502576001600160a01b037f000000000000000000000000000000000000000000000000000000000000000016630c93e3bb6114398734613928565b6114428d6123a5565b600961144d306124a4565b600860019054906101000a900460ff168f4260405160200161149f9392919060ff9390931683526001600160a01b03919091166020830152604082015260806060820181905260009082015260a00190565b604051602081830303815290604052336040518763ffffffff1660e01b81526004016114cf95949392919061393f565b6000604051808303818588803b1580156114e857600080fd5b505af11580156114fc573d6000803e3d6000fd5b50505050505b6040517fb54170840000000000000000000000000000000000000000000000000000000081526001600160a01b037f0000000000000000000000000000000000000000000000000000000000000000169063b54170849061156f908e908e9086908e908e9060040161399e565b600060405180830381600087803b15801561158957600080fd5b505af115801561159d573d6000803e3d6000fd5b50505050886001600160a01b0316336001600160a01b03167fa27d5b16ded612deff9b828a6b0c0c1ec8c78579df65eceebaf17a387939a937848e8c8c8c6040516115ec9594939291906139fe565b60405180910390a35050505050505050505050565b600c6020526000908152604090208054610b31906134f1565b6000818152600260205260409020546001600160a01b031661167e5760405162461bcd60e51b815260206004820152601860248201527f4552433732313a20696e76616c696420746f6b656e204944000000000000000060448201526064016108c4565b50565b6000818152600460205260409020805473ffffffffffffffffffffffffffffffffffffffff19166001600160a01b03841690811790915581906116c382610ccf565b6001600160a01b03167f8c5be1e5ebec7d5bd14f71427d1e84f3dd0314c0f7b2291e5b200ac8c7c3b92560405160405180910390a45050565b600080808061170d888a018a613a43565b935093509350935060007f00000000000000000000000000000000000000000000000000000000000000006001600160a01b031663935b13f689896040518363ffffffff1660e01b8152600401611765929190613aa3565b60206040518083038186803b15801561177d57600080fd5b505afa158015611791573d6000803e3d6000fd5b505050506040513d601f19601f820116820180604052508101906117b59190613736565b6040517fa9059cbb0000000000000000000000000000000000000000000000000000000081526001600160a01b038681166004830152602482018990529192509082169063a9059cbb90604401602060405180830381600087803b15801561181c57600080fd5b505af1158015611830573d6000803e3d6000fd5b505050506040513d601f19601f8201168201806040525081019061185491906136a9565b507f00000000000000000000000000000000000000000000000000000000000000006001600160a01b0316631c92115f8f8f8f8f600860019054906101000a900460ff168a8c6040516020016118da9392919060ff9390931683526001600160a01b03919091166020830152604082015260806060820181905260009082015260a00190565b6040516020818303038152906040526040518663ffffffff1660e01b81526004016119099594939291906135f3565b600060405180830381600087803b15801561192357600080fd5b505af1158015611937573d6000803e3d6000fd5b5050505060008e8e8080601f01602080910402602001604051908101604052809392919081815260200183838082843760009201919091525050604051929350506001600160a01b038088169290871691507f6f22622d2eb5c939939c6c94d2431bd442ac3d400ee08a1e090846bc152715a8906119b8908a908690613ab7565b60405180910390a3505050505050505050505050505050565b6000806119dd83610ccf565b9050806001600160a01b0316846001600160a01b03161480611a2457506001600160a01b0380821660009081526005602090815260408083209388168352929052205460ff165b806110235750836001600160a01b0316611a3d8461080c565b6001600160a01b031614949350505050565b826001600160a01b0316611a6282610ccf565b6001600160a01b031614611ac65760405162461bcd60e51b815260206004820152602560248201527f4552433732313a207472616e736665722066726f6d20696e636f72726563742060448201526437bbb732b960d91b60648201526084016108c4565b6001600160a01b038216611b415760405162461bcd60e51b8152602060048201526024808201527f4552433732313a207472616e7366657220746f20746865207a65726f2061646460448201527f726573730000000000000000000000000000000000000000000000000000000060648201526084016108c4565b611b4e8383836001612774565b826001600160a01b0316611b6182610ccf565b6001600160a01b031614611bc55760405162461bcd60e51b815260206004820152602560248201527f4552433732313a207472616e736665722066726f6d20696e636f72726563742060448201526437bbb732b960d91b60648201526084016108c4565b6000818152600460209081526040808320805473ffffffffffffffffffffffffffffffffffffffff199081169091556001600160a01b0387811680865260038552838620805460001901905590871680865283862080546001019055868652600290945282852080549092168417909155905184937fddf252ad1be2c89b69c2b068fc378daa952ba7f163c4a11628f55a4df523b3ef91a4505050565b6000808080611c7385870187613ad0565b6008549397509195509350915060ff80861691161415611cff576001600160a01b0383166000908152600b602090815260409091208251611cb692840190612dc7565b50826001600160a01b03167f1bc4f587264e6b2976231c857d90c7f5b8bb2f214199a3ca48f305b4f2c1137a42604051611cf291815260200190565b60405180910390a26121d8565b60085460ff8581166101009092041614156121d8576000828152600a602052604090206001015460ff16156121d857600080600080600080600080600a60008b81526020019081526020016000206000018054611d5b906134f1565b80601f0160208091040260200160405190810160405280929190818152602001828054611d87906134f1565b8015611dd45780601f10611da957610100808354040283529160200191611dd4565b820191906000526020600020905b815481529060010190602001808311611db757829003601f168201915b5050505050806020019051810190611dec9190613b7a565b9750975097509750975097509750975060008a9050611e0b88826127fc565b620f42408311611edb57620f4240600052600c6020527ff75fa7e281ce4e7c2265cb95791c4635afa58b543b88b5b95522884f3826554a8054611ed6918391611e53906134f1565b80601f0160208091040260200160405190810160405280929190818152602001828054611e7f906134f1565b8015611ecc5780601f10611ea157610100808354040283529160200191611ecc565b820191906000526020600020905b815481529060010190602001808311611eaf57829003601f168201915b5050505050612816565b612166565b625b8d808311611f2357625b8d80600052600c6020527f106f2b503da3f01c295773af56552ad4a3dad8b5787cceb93e8ecccf9cb4a6da8054611ed6918391611e53906134f1565b62b71b008311611f6b5762b71b00600052600c6020527fd4a1aa9efcef3f307be9a4455ca2f0b88c0f75eb9bf9fe57d1b61b745088a2068054611ed6918391611e53906134f1565b63016e36008311611fb55763016e3600600052600c6020527f6da11cbd6b3596ed809952f0aa937c01521b0657218d35827f0f18c4e05edd7b8054611ed6918391611e53906134f1565b6302dc6c008311611fff576302dc6c00600052600c6020527fbf7ee84733db1ff9e03edbef0a4900d43a1833e9ce1eebdcfad946af325b71838054611ed6918391611e53906134f1565b6305b8d8008311612049576305b8d800600052600c6020527ffd524ddc9f1d987f57f99ba0b39082a9d8b56e733ec4cea53261f0aaa210bc6a8054611ed6918391611e53906134f1565b630b71b000831161209357630b71b000600052600c6020527f5e164ecce071da93dc4700239be0ca449d3c8620b2b187a0d255244c50fac29c8054611ed6918391611e53906134f1565b6316e3600083116120dd576316e36000600052600c6020527feda9b2c601e6af535ba6657b0adf34fd5beaaf1661dc26c3ed7a1de01723050c8054611ed6918391611e53906134f1565b632dc6c000831161212757632dc6c000600052600c6020527fa2f6c47cea69240cf3ac6d7ded79705d9f6344f826891ddbee2e20b7329f0af88054611ed6918391611e53906134f1565b635b8d8000600052600c6020527fb4e89aab3c144b92ef07d2ad5c83a64453466e327091b5c7f25df36a6617029b8054612166918391611e53906134f1565b60008b8152600a602052604090819020600101805461ff001916610100179055516001600160a01b0380881691908a16907fb5b61d6cd76f3424579d7d750da1ea50717ed3d8347de043ef211aa997c479f1906121c6908f908c90613ab7565b60405180910390a35050505050505050505b50505050505050505050565b816001600160a01b0316836001600160a01b031614156122465760405162461bcd60e51b815260206004820152601960248201527f4552433732313a20617070726f766520746f2063616c6c65720000000000000060448201526064016108c4565b6001600160a01b03838116600081815260056020908152604080832094871680845294825291829020805460ff191686151590811790915591519182527f17307eab39ab6107e8899845ad3d59bd9653f200f220920489ca2b5937696c31910160405180910390a3505050565b6122be848484611a4f565b6122ca848484846128bf565b610f145760405162461bcd60e51b815260206004820152603260248201527f4552433732313a207472616e7366657220746f206e6f6e20455243373231526560448201527131b2b4bb32b91034b6b83632b6b2b73a32b960711b60648201526084016108c4565b606061233c8261161a565b600061235360408051602081019091526000815290565b90506000815111612373576040518060200160405280600081525061239e565b8061237d84612a17565b60405160200161238e929190613707565b6040516020818303038152906040525b9392505050565b80516000908290602a146123bc5750600092915050565b60008060025b602a81101561249a578381815181106123dd576123dd613c40565b016020015160f81c9150606182108015906123fc575060668260ff1611155b156124135761240c605783613c56565b915061246f565b60418260ff161015801561242b575060468260ff1611155b1561243b5761240c603783613c56565b60308260ff1610158015612453575060398260ff1611155b156124635761240c603083613c56565b50600095945050505050565b600261247c826029613928565b60ff8416911b1b92909217918061249281613c79565b9150506123c2565b5090949350505050565b604051606082811b6bffffffffffffffffffffffff191660208301529060009060340160408051601f19818403018152828201909152601082527f303132333435363738396162636465660000000000000000000000000000000060208301528051909250600090612517906002613c94565b612522906002613cb3565b67ffffffffffffffff81111561253a5761253a612f6c565b6040519080825280601f01601f191660200182016040528015612564576020820181803683370190505b5090507f30000000000000000000000000000000000000000000000000000000000000008160008151811061259b5761259b613c40565b60200101906001600160f81b031916908160001a9053507f7800000000000000000000000000000000000000000000000000000000000000816001815181106125e6576125e6613c40565b60200101906001600160f81b031916908160001a90535060005b835181101561276b5782600485838151811061261e5761261e613c40565b016020015182517fff0000000000000000000000000000000000000000000000000000000000000090911690911c60f81c90811061265e5761265e613c40565b01602001517fff000000000000000000000000000000000000000000000000000000000000001682612691836002613c94565b61269c906002613cb3565b815181106126ac576126ac613c40565b60200101906001600160f81b031916908160001a905350828482815181106126d6576126d6613c40565b602091010151815160f89190911c600f169081106126f6576126f6613c40565b01602001517fff000000000000000000000000000000000000000000000000000000000000001682612729836002613c94565b612734906003613cb3565b8151811061274457612744613c40565b60200101906001600160f81b031916908160001a90535061276481613c79565b9050612600565b50949350505050565b6001811115610f14576001600160a01b038416156127ba576001600160a01b038416600090815260036020526040812080548392906127b4908490613928565b90915550505b6001600160a01b03831615610f14576001600160a01b038316600090815260036020526040812080548392906127f1908490613cb3565b909155505050505050565b610de8828260405180602001604052806000815250612ac1565b6000828152600260205260409020546001600160a01b03166128a05760405162461bcd60e51b815260206004820152602e60248201527f45524337323155524953746f726167653a2055524920736574206f66206e6f6e60448201527f6578697374656e7420746f6b656e00000000000000000000000000000000000060648201526084016108c4565b6000828152600660209081526040909120825161096592840190612dc7565b60006001600160a01b0384163b15612a0c57604051630a85bd0160e11b81526001600160a01b0385169063150b7a0290612903903390899088908890600401613ccb565b602060405180830381600087803b15801561291d57600080fd5b505af192505050801561294d575060408051601f3d908101601f1916820190925261294a91810190613cfd565b60015b6129f2573d80801561297b576040519150601f19603f3d011682016040523d82523d6000602084013e612980565b606091505b5080516129ea5760405162461bcd60e51b815260206004820152603260248201527f4552433732313a207472616e7366657220746f206e6f6e20455243373231526560448201527131b2b4bb32b91034b6b83632b6b2b73a32b960711b60648201526084016108c4565b805181602001fd5b6001600160e01b031916630a85bd0160e11b149050611023565b506001949350505050565b60606000612a2483612b3f565b600101905060008167ffffffffffffffff811115612a4457612a44612f6c565b6040519080825280601f01601f191660200182016040528015612a6e576020820181803683370190505b5090508181016020015b600019017f3031323334353637383961626364656600000000000000000000000000000000600a86061a8153600a8504945084612ab457612ab9565b612a78565b509392505050565b612acb8383612c21565b612ad860008484846128bf565b6109655760405162461bcd60e51b815260206004820152603260248201527f4552433732313a207472616e7366657220746f206e6f6e20455243373231526560448201527131b2b4bb32b91034b6b83632b6b2b73a32b960711b60648201526084016108c4565b6000807a184f03e93ff9f4daa797ed6e38ed64bf6a1f0100000000000000008310612b88577a184f03e93ff9f4daa797ed6e38ed64bf6a1f010000000000000000830492506040015b6d04ee2d6d415b85acef81000000008310612bb4576d04ee2d6d415b85acef8100000000830492506020015b662386f26fc100008310612bd257662386f26fc10000830492506010015b6305f5e1008310612bea576305f5e100830492506008015b6127108310612bfe57612710830492506004015b60648310612c10576064830492506002015b600a83106105a95760010192915050565b6001600160a01b038216612c775760405162461bcd60e51b815260206004820181905260248201527f4552433732313a206d696e7420746f20746865207a65726f206164647265737360448201526064016108c4565b6000818152600260205260409020546001600160a01b031615612cdc5760405162461bcd60e51b815260206004820152601c60248201527f4552433732313a20746f6b656e20616c7265616479206d696e7465640000000060448201526064016108c4565b612cea600083836001612774565b6000818152600260205260409020546001600160a01b031615612d4f5760405162461bcd60e51b815260206004820152601c60248201527f4552433732313a20746f6b656e20616c7265616479206d696e7465640000000060448201526064016108c4565b6001600160a01b0382166000818152600360209081526040808320805460010190558483526002909152808220805473ffffffffffffffffffffffffffffffffffffffff19168417905551839291907fddf252ad1be2c89b69c2b068fc378daa952ba7f163c4a11628f55a4df523b3ef908290a45050565b828054612dd3906134f1565b90600052602060002090601f016020900481019282612df55760008555612e3b565b82601f10612e0e57805160ff1916838001178555612e3b565b82800160010185558215612e3b579182015b82811115612e3b578251825591602001919060010190612e20565b50612e47929150612e4b565b5090565b5b80821115612e475760008155600101612e4c565b6001600160e01b03198116811461167e57600080fd5b600060208284031215612e8857600080fd5b813561239e81612e60565b60005b83811015612eae578181015183820152602001612e96565b83811115610f145750506000910152565b60008151808452612ed7816020860160208601612e93565b601f01601f19169290920160200192915050565b60208152600061239e6020830184612ebf565b60008083601f840112612f1057600080fd5b50813567ffffffffffffffff811115612f2857600080fd5b602083019150836020828501011115612f4057600080fd5b9250929050565b6001600160a01b038116811461167e57600080fd5b8035612f6781612f47565b919050565b634e487b7160e01b600052604160045260246000fd5b604051601f8201601f1916810167ffffffffffffffff81118282101715612fab57612fab612f6c565b604052919050565b600067ffffffffffffffff821115612fcd57612fcd612f6c565b50601f01601f191660200190565b6000612fee612fe984612fb3565b612f82565b905082815283838301111561300257600080fd5b828260208301376000602084830101529392505050565b600082601f83011261302a57600080fd5b61239e83833560208501612fdb565b6000806000806000806080878903121561305257600080fd5b863567ffffffffffffffff8082111561306a57600080fd5b6130768a838b01612efe565b9098509650602089013591508082111561308f57600080fd5b61309b8a838b01612efe565b9096509450604089013591506130b082612f47565b909250606088013590808211156130c657600080fd5b506130d389828a01613019565b9150509295509295509295565b6000602082840312156130f257600080fd5b5035919050565b6000806040838503121561310c57600080fd5b823561311781612f47565b946020939093013593505050565b60008060008060008060008060008060c08b8d03121561314457600080fd5b8a35995060208b013567ffffffffffffffff8082111561316357600080fd5b61316f8e838f01612efe565b909b50995060408d013591508082111561318857600080fd5b6131948e838f01612efe565b909950975060608d01359150808211156131ad57600080fd5b6131b98e838f01612efe565b909750955060808d01359150808211156131d257600080fd5b506131df8d828e01612efe565b9150809450508092505060a08b013590509295989b9194979a5092959850565b60008060006060848603121561321457600080fd5b833561321f81612f47565b9250602084013561322f81612f47565b929592945050506040919091013590565b60006020828403121561325257600080fd5b813561239e81612f47565b60008060008060008060006080888a03121561327857600080fd5b87359650602088013567ffffffffffffffff8082111561329757600080fd5b6132a38b838c01612efe565b909850965060408a01359150808211156132bc57600080fd5b6132c88b838c01612efe565b909650945060608a01359150808211156132e157600080fd5b506132ee8a828b01612efe565b989b979a50959850939692959293505050565b801515811461167e57600080fd5b6000806040838503121561332257600080fd5b823561332d81612f47565b9150602083013561333d81613301565b809150509250929050565b60608152600061335b6060830186612ebf565b931515602083015250901515604090910152919050565b6000806000806080858703121561338857600080fd5b843561339381612f47565b935060208501356133a381612f47565b925060408501359150606085013567ffffffffffffffff8111156133c657600080fd5b8501601f810187136133d757600080fd5b6133e687823560208401612fdb565b91505092959194509250565b600080600080600080600060e0888a03121561340d57600080fd5b873567ffffffffffffffff8082111561342557600080fd5b6134318b838c01613019565b985060208a013591508082111561344757600080fd5b6134538b838c01613019565b975061346160408b01612f5c565b965060608a013591508082111561347757600080fd5b6134838b838c01613019565b955060808a0135945060a08a01359150808211156134a057600080fd5b506134ad8a828b01613019565b92505060c0880135905092959891949750929550565b600080604083850312156134d657600080fd5b82356134e181612f47565b9150602083013561333d81612f47565b600181811c9082168061350557607f821691505b6020821081141561352657634e487b7160e01b600052602260045260246000fd5b50919050565b60ff851681526001600160a01b038416602082015282604082015260806060820152600061355d6080830184612ebf565b9695505050505050565b81835281816020850137506000828201602090810191909152601f909101601f19169091010190565b60006001600160a01b03808a16835260a060208401526135b460a08401898b613567565b83810360408501526135c781888a613567565b905083810360608501526135db8187612ebf565b92505080841660808401525098975050505050505050565b606081526000613607606083018789613567565b828103602084015261361a818688613567565b9050828103604084015261362e8185612ebf565b98975050505050505050565b8183823760009101908152919050565b89815260c06020820152600061366460c083018a8c613567565b828103604084015261367781898b613567565b90508660608401528281036080840152613692818688613567565b9150508260a08301529a9950505050505050505050565b6000602082840312156136bb57600080fd5b815161239e81613301565b8681526080602082015260006136e0608083018789613567565b82810360408401526136f3818688613567565b915050826060830152979650505050505050565b60008351613719818460208801612e93565b83519083019061372d818360208801612e93565b01949350505050565b60006020828403121561374857600080fd5b815161239e81612f47565b8054600090600181811c908083168061376d57607f831692505b602080841082141561378f57634e487b7160e01b600052602260045260246000fd5b838852602088018280156137aa57600181146137bb576137e6565b60ff198716825282820197506137e6565b60008981526020902060005b878110156137e0578154848201529086019084016137c7565b83019850505b5050505050505092915050565b60006101008083526138078184018c613753565b90506001600160a01b03808b166020850152838203604085015261382b828b612ebf565b915080891660608501525086608084015282810360a084015261384e8187612ebf565b60c0840195909552505060e001529695505050505050565b84815260006001600160a01b0380861660208401528085166040840152506080606083015261355d6080830184612ebf565b60006001600160a01b03808a16835260e060208401526138bb60e084018a612ebf565b83810360408501526138cd818a612ebf565b905083810360608501526138e18189612ebf565b905083810360808501526138f58188612ebf565b60a0850196909652509290921660c0909101525095945050505050565b634e487b7160e01b600052601160045260246000fd5b60008282101561393a5761393a613912565b500390565b60006001600160a01b03808816835260a0602084015261396260a0840188613753565b83810360408501526139748188612ebf565b905083810360608501526139888187612ebf565b9250508084166080840152509695505050505050565b60a0815260006139b160a0830188612ebf565b82810360208401526139c38188612ebf565b905082810360408401526139d78187612ebf565b905082810360608401526139eb8186612ebf565b9150508260808301529695505050505050565b85815260a060208201526000613a1760a0830187612ebf565b8281036040840152613a298187612ebf565b9050846060840152828103608084015261362e8185612ebf565b60008060008060808587031215613a5957600080fd5b843593506020850135613a6b81612f47565b92506040850135613a7b81612f47565b9150606085013567ffffffffffffffff811115613a9757600080fd5b6133e687828801613019565b602081526000611023602083018486613567565b8281526040602082015260006110236040830184612ebf565b60008060008060808587031215613ae657600080fd5b843560ff81168114613af757600080fd5b93506020850135613b0781612f47565b925060408501359150606085013567ffffffffffffffff811115613a9757600080fd5b600082601f830112613b3b57600080fd5b8151613b49612fe982612fb3565b818152846020838601011115613b5e57600080fd5b611023826020830160208701612e93565b8051612f6781612f47565b600080600080600080600080610100898b031215613b9757600080fd5b885167ffffffffffffffff80821115613baf57600080fd5b613bbb8c838d01613b2a565b9950613bc960208c01613b6f565b985060408b0151915080821115613bdf57600080fd5b613beb8c838d01613b2a565b9750613bf960608c01613b6f565b965060808b0151955060a08b0151915080821115613c1657600080fd5b50613c238b828c01613b2a565b60c08b015160e0909b0151999c989b509699959894979350505050565b634e487b7160e01b600052603260045260246000fd5b600060ff821660ff841680821015613c7057613c70613912565b90039392505050565b6000600019821415613c8d57613c8d613912565b5060010190565b6000816000190483118215151615613cae57613cae613912565b500290565b60008219821115613cc657613cc6613912565b500190565b60006001600160a01b0380871683528086166020840152508360408301526080606083015261355d6080830184612ebf565b600060208284031215613d0f57600080fd5b815161239e81612e6056fea2646970667358221220e8aac87b188b41c1c12e1abd81252a8bb615cd4682c340b108b12ed87a936cae64736f6c6343000809003368747470733a2f2f626166796265696866787137656876737764746734697673657266776970747a663674747235616c64667771643561766d6f61626b637a70326a652e697066732e7733732e6c696e6b2f342e6a736f6e68747470733a2f2f6261667962656964696f6b627036626e69376561326366667367366a7436666a6c6c35686837796d65676e7762637034796e68696f6567726335792e697066732e7733732e6c696e6b2f372e6a736f6e68747470733a2f2f62616679626569646a7364617971777762696b74357876326375326678676b3379356b6675356877613361337a76696366327a683736707a6b34712e697066732e7733732e6c696e6b2f322e6a736f6e68747470733a2f2f6261667962656962797366377274626c766563636d6b6c36666e617537637437766a626f766568616173323632617a6870796574706d71356e6f612e697066732e7733732e6c696e6b2f352e6a736f6e68747470733a2f2f626166796265696577643364623665626a6d7573356c797273347274637166356a6575686c37353375633764786e703472643370376463763778752e697066732e7733732e6c696e6b2f392e6a736f6e68747470733a2f2f62616679626569636875716f3536363636677065343278757163676d35776e7132736334647367616a6d657167367232636a6f7a64636e7a6669752e697066732e7733732e6c696e6b2f31302e6a736f6e68747470733a2f2f626166796265696273366d72757779677974356d6c6779676763683265693263726c64727061787533753232746b7a327274356b7367616d3676712e697066732e7733732e6c696e6b2f312e6a736f6e68747470733a2f2f62616679626569686c6664736b6f7936697473736e67776f3265356e686a356764687a3479787670686c733270776466666b7379786771783776612e697066732e7733732e6c696e6b2f382e6a736f6e68747470733a2f2f626166796265696737617079356c7379346c70747575756d65346c66673737696164356b34656477796c6b6b3679716b687a7032773266356e64652e697066732e7733732e6c696e6b2f362e6a736f6e68747470733a2f2f626166796265696437656332747978366a77327033616270626a657368776b697837666737706d716a6475717932736276706a7472797869676a6d2e697066732e7733732e6c696e6b2f332e6a736f6e",
  "linkReferences": {},
  "deployedLinkReferences": {}
}